:100000000C946B000C9488000C9449030C948800A9
:100010000C9488000C949E020C9488000C94880028
:100020000C9488000C9488000C9488000C941107A0
:100030000C9488000C9488000C9488000C94880020
:100040000C9488000C9488000C9488000C94880010
:100050000C94880007634236B79BD8A71A396856B4
:1000600018AEBAAB558C1D3CB7CC5763BD6DEDFDDA
:10007000753EF6177231BF000000803F0800000097
:10008000BE922449123EABAAAA2ABECDCCCC4C3E8D
:1000900000000080BEABAAAAAA3E00000000BF007C
:1000A0000000803F0000000000084178D3BB438778
:1000B000D1133D190E3CC3BD4282AD2B3E68EC828C
:1000C00076BED98FE1A93E4C80EFFFBE01C4FF7F11
:1000D0003F000000000011241FBECFE5D8E0DEBFC6
:1000E000CDBF11E0A0E6B0E0E4E2F6E102C0059089
:1000F0000D92AE34B107D9F721E0AEE4B1E001C012
:100100001D92A935B207E1F70E9497000C94100BDD
:100110000C9400000E94160480E690E00E94EC031C
:100120000E94240481E790E00E94EC0308950E945D
:100130007F030E94EE0564E670E082E00E94820385
:100140000E9458040E94B4030E9461030E94AC0301
:100150000E94F1050E9412060E94070714BC89B78D
:10016000806489BF85B5876085BD8B98939A8BB76E
:1001700080688BBF85B7886085BF0E9416048BE7B7
:1001800090E00E94EC030E947803882399F086E8AF
:1001900090E00E94EC0309C064E670E081E00E94F8
:1001A000820380ED97E00E9498030E9478038111FA
:1001B000F3CF08C08AE890E00E94EC0388EE93E059
:1001C0000E9498030E9416048EE890E00E94EC03BF
:1001D0000E94AF03892B99F086E890E00E94EC031F
:1001E00009C064E670E081E00E94820380ED97E040
:1001F0000E9498030E94AF03892B99F708C08AE8F0
:1002000090E00E94EC0388EE93E00E9498030E9425
:100210008A00789485B7806885BF88950F2EF2E5AF
:10022000EF2EF1E0FF2EF02D03E511E0B12C992423
:100230009394A12CCB2CF701808181FF50C00E94A8
:100240007803882399F0F701808185FD1CC08081A7
:100250008062808381E00E94880489E990E00E94A6
:10026000EC03F7018081886080830DC0F7018081F5
:1002700085FF09C08081877F808380818F7D808317
:10028000A9980E948A000E94AF03892B99F0F70178
:10029000808184FD1CC080818061808381E00E9418
:1002A00088048AEA90E00E94EC03F7018081846070
:1002B00080830DC0F701808184FF09C080818B7F1E
:1002C000808380818F7E8083A9980E948A008CEC35
:1002D00090E00E949706F70180818D7F8083F7016F
:1002E000808180FF29C166E970E081E00E9482037D
:1002F000F801808182FF5CC00E94160486EB90E0CA
:100300000E94EC030E940D068EEE92E00E9498037C
:100310000E9404060E942706F7018081806880837E
:10032000CB2DF801808181FD04C00E940806CF5FBB
:1003300002C00E9404068FE290E00E949803C43637
:1003400080F30E9443060E945F06CB2DF801808156
:1003500081FD04C00E940806CF5F02C00E9404060F
:1003600088E290E00E949803C43680F30E947B06E6
:1003700080ED97E00E9498030E9404060E941604F4
:1003800083EC90E00E94EC03F80180818B7F8083F6
:10039000F70180818F77808366E970E083E00E94B7
:1003A000820380ED97E00E9498030E948A00C0C0FB
:1003B000F80180818B7F808381E00E94880484ED36
:1003C00090E00E94EC030E9408068B2D0E94880496
:1003D000C92DDA2DDB2C80E890E00E949706BC0145
:1003E000990F880B990B0E9441082AE037ED43E2F0
:1003F0005EE30E94CD0818160CF077C0D394E8E2B3
:10040000ED1508F06DC00E94160485EE90E00E9484
:10041000EC0366E970E082E00E9482030E94080615
:1004200080EA9FE00E9498030E9404060E94240430
:1004300085EF90E00E94EC03F70180818064808367
:100440000E945F060E940D06CB2DF801808180FD81
:1004500004C00E940D06CF5F02C00E94040687E31D
:1004600090E00E949803C43680F30E947B060E94AD
:100470002706CB2DF801808180FD04C00E940D0667
:10048000CF5F02C00E94040687E390E00E949803B9
:10049000C43680F30E9404060E9443060E94FB05B6
:1004A0008EEE92E00E9498030E9404060E941604B9
:1004B00082E091E00E94EC03F70180818F7B8083D2
:1004C00066E970E083E00E94820380ED97E00E947D
:1004D00098030E948A00F80180818460808328C08C
:1004E00084E690E00E94980301C0DC2C6D2D70E042
:1004F00088E80E94C105BE018CE80E94C1052196D2
:10050000CA3FD10509F067CF81E00E94880483E1EA
:1005100091E00E94EC030E94040666E970E083E02B
:100520000E94820388EE93E00E9498030E948A0052
:10053000F70180818E7F808388957DCE1F920F92F8
:100540000FB60F9211242F933F934F935F936F93A6
:100550007F938F939F93AF93BF93EF93FF9314BCBD
:10056000809151018F5F809351018C3918F0109266
:1005700051010BC0833059F018F4811109C005C036
:10058000863019F0893019F003C0A89A01C0A898E4
:100590008091520181FD0EC0809150018F5F809348
:1005A00050018F3138F0E2E5F1E080818260808394
:1005B000109250018091520183FD04C0809152013C
:1005C00082FF18C080914F018F5F80934F018E355D
:1005D00018F010924F010BC0833059F018F48111BC
:1005E00009C005C0863019F0893019F003C0A99AF6
:1005F00001C0A9988091520186FF27C00E94BD03C7
:10060000882331F0E3E5F1E080818160808305C0DB
:10061000E3E5F1E080818E7F808380914E018F5FE2
:1006200080934E018F3118F010924E010BC0833031
:1006300059F018F4811109C005C0863019F08930CD
:1006400019F003C0A99A01C0A9988091520188238A
:100650007CF40E94B903882331F0E3E5F1E0808166
:100660008260808305C0E3E5F1E080818D7F808337
:10067000FF91EF91BF91AF919F918F917F916F917A
:100680005F914F913F912F910F900FBE0F901F9050
:1006900018951F920F920FB60F9211248F93EF931C
:1006A000FF93E2E5F1E08081816080838BB7806811
:1006B0008BBFFF91EF918F910F900FBE0F901F9006
:1006C00018958A98929A81E00E94880483E291E0CA
:1006D0000E94EC03829BFECF8BE890E00E94EC032B
:1006E00088EE93E00E94980381E00E9488040895B8
:1006F00080B382FB882780F991E089270895A19A29
:10070000A99808950F931F93CF93882369F08B01C5
:10071000C82FA99AC8010E949803A99884E690E07E
:100720000E949803C150A9F7CF911F910F9108958E
:10073000009741F0EFECF7E03197F1F700C00000CF
:100740000197C1F70895009731F022E02A95F1F75B
:1007500000C00197D1F708958F98979A089580B3B4
:10076000881F8827881F08958C98949A8E98969A47
:10077000089580B382958170089580B386FB8827A1
:1007800080F90895AB9881E090E00E94A303AB9AB2
:100790000895CF93C82F85B39C2F907F8F70892B9E
:1007A00085BB0E94C20325B330E1C39FC001112461
:1007B000922F9F70892B85BB0E94C2038EEE92E020
:1007C0000E94A303CF910895AA980E94C903089597
:1007D000AA9A0E94C90308950F931F93CF93DF93A2
:1007E000FC0120812223E9F0EC0100EC10E880916B
:1007F0005401803919F0803D21F005C00093540167
:1008000002C0109354018091540191E0980F90938D
:1008100054010E94E40389910E94E80388818111B8
:10082000E6CFDF91CF911F910F91089581E00E9453
:10083000E40380E880935401089580E80E94E40373
:1008400080E880935401089580EC0E94E40380ECDA
:100850008093540108950F931F93CF9382E391E007
:100860000E94EC030E94240408EC10E0C0EC8C2FE2
:100870000E94E4038EE20E94E80380E48C0F88303B
:1008800020F4C8010E94980304C089E190E00E940E
:1008900098038C2F0E94E40380E20E94E803CF5F5C
:1008A0000E5C1F4FC03D19F7CF911F910F91089516
:1008B00084B38C6F84BB85B3837085BB88E290E082
:1008C0000E94980383E30E94E40385E090E00E9485
:1008D000980383E30E94E40384EF91E00E94A30362
:1008E00082E30E94E40384EF91E00E94A30388E284
:1008F0000E94E4038CE00E94E40386E00E94E4038B
:1009000081E00E94E4030E9416040E942B040895D3
:10091000CF93DF93D82F882319F0813021F005C0C1
:100920000E941D0402C00E942404C0E180E20E94D3
:10093000E803C150D9F7DD2319F0D13021F005C00B
:100940000E941D0402C00E942404DF91CF910895EB
:100950009B01215031091216130684F4FC01E60FA5
:10096000F71FDC0180E090E04C9152915D93408351
:1009700001962150310982179307B4F30895EF923D
:10098000FF920F931F93CF93DF938B019A010097F0
:1009900099F0FB01C0E0D0E00F2EFAE0EF2EF12C31
:1009A000F02D2196B7010E94E80A805D8193862F81
:1009B000972F0097B1F702C0C0E0D0E0C217D3076D
:1009C00064F4F801EC0FFD1FA801420F531F80E3F0
:1009D0008193E417F507E1F7E901BE01C8010E9420
:1009E000A804F801EC0FFD1F1082CE01DF91CF911A
:1009F0001F910F91FF90EF9008952F923F924F9289
:100A00005F926F927F928F929F92AF92BF92CF929E
:100A1000DF92EF92FF920F931F93CF93DF934B01DF
:100A20005C018A01E9010E9409086B017C0140E038
:100A300050E0B801C6010E94BF041C012097A9F133
:100A4000F801E80FF91F8EE28083BE010D2E000C25
:100A5000880B990B0E9441089B01AC0160E070E09B
:100A600080E291E40E943F092B013C01B601DD0CBC
:100A7000880B990B0E9441089B01AC01C501B40190
:100A80000E942A079B01AC018FEF281A380A020D39
:100A9000131DC301B2010E94D2080E940908DC01A3
:100AA000CB01AE01B8010E94BF04DF91CF911F912D
:100AB0000F91FF90EF90DF90CF90BF90AF909F90FD
:100AC0008F907F906F905F904F903F902F90089500
:100AD000FC0101900020E9F73197E81BF90B9F0119
:100AE00021503109121613067CF4E80FF91FDC01BE
:100AF00080E090E04C9152915D93408301962150AB
:100B0000310982179307B4F30895EF92FF920F9380
:100B10001F93CF93DF938C01EB019C01992324F465
:100B200022273327281B390BC901FE0120E030E0C2
:100B30000F2EFAE0EF2EF12CF02D2F5F3F4FB70173
:100B40000E94E80A805D8193862F972F1816190658
:100B5000A4F3C90111233CF42F5F3F4FFE01E80FBE
:100B6000F91F4DE24083FE01E20FF31F1082CE0118
:100B70000E946805DF91CF911F910F91FF90EF9038
:100B80000895EF92FF921F93CF93DF93CDB7DEB717
:100B90002A970FB6F894DEBF0FBECDBF182F7B018A
:100BA0008093540189E491E00E94EC031093540176
:100BB000BE016F5F7F4FC7010E948505CE01019680
:100BC0000E94EC032A960FB6F894DEBF0FBECDBF8D
:100BD000DF91CF911F91FF90EF900895A09AA89870
:100BE00008958AB388618ABB8BB3877E8BBB0895D7
:100BF000DB9ADC980895DC9ADB980895DD9ADE98FC
:100C00000895DE9ADD9808958BB3877E8BBB089597
:100C10000E94F8050E94010608950E94FB050E94AB
:100C2000FE0508958D9A95988FB582688FBD8EB513
:100C30008A618EBD80E29EE497BD86BD8CED95E015
:100C40009BBD8ABD90935601809355010895809174
:100C5000550190915601803D27E0920798F44996FE
:100C600090935601809355019BBD8ABD89E190E028
:100C70000E9498038091550190915601803D27E094
:100C8000920768F3089580915501909156018D3D2A
:100C900025E0920798F0499790935601809355016B
:100CA0009BBD8ABD89E190E00E9498038091550127
:100CB000909156018D3D25E0920768F70895809147
:100CC000550190915601823024E0920798F049979F
:100CD00090935601809355019BBD8ABD89E190E0B8
:100CE0000E9498038091550190915601823024E032
:100CF000920768F7089580915501909156018C3DB7
:100D000025E0920798F449969093560180935501F7
:100D10009BBD8ABD89E190E00E94980380915501B6
:100D2000909156018C3D25E0920768F308958F92CB
:100D30009F92AF92BF92EF92FF920F931F93CF9328
:100D4000DF93CDB7DEB72A970FB6F894DEBF0FBE9C
:100D5000CDBFE82E6894FF24F2F800E010E0D99AA5
:100D60008AE090E00E94A303D99810925801109253
:100D70005701C89BFECF93B7926093BFC899FECF2F
:100D800093B79D7F93BF2091570130915801020F77
:100D9000131FFA94F110E3CFB80176956795769515
:100DA000679580E090E00E943F0827EE3AE34DE827
:100DB0005CE30E94D2084B015C01EE20A9F0E092B6
:100DC000540188E491E00E94EC0322E030E0AE019F
:100DD0004F5F5F4FC501B4010E94FD04E0925401D2
:100DE000CE0101960E94EC03C501B4012A960FB60C
:100DF000F894DEBF0FBECDBFDF91CF911F910F9151
:100E0000FF90EF90BF90AF909F908F900895D19AF0
:100E1000D098D998D89A8CE982BF89B7816089BF68
:100E200008951F920F920FB60F9211248F939F93E4
:100E30008CE982BF8091570190915801019690935F
:100E40005801809357019F918F910F900FBE0F9083
:100E50001F9018955058BB27AA270E9442070C9450
:100E600093080E94850838F00E948C0820F039F41D
:100E70009F3F19F426F40C9482080EF4E095E7FBEA
:100E80000C947C08E92F0E94A40858F3BA17620753
:100E900073078407950720F079F4A6F50C94C6082B
:100EA0000EF4E0950B2EBA2FA02D0B01B901900185
:100EB0000C01CA01A0011124FF27591B99F0593FC9
:100EC00050F4503E68F11A16F040A22F232F342F11
:100ED0004427585FF3CF469537952795A795F0405F
:100EE0005395C9F77EF41F16BA0B620B730B840B74
:100EF000BAF09150A1F0FF0FBB1F661F771F881F2C
:100F0000C2F70EC0BA0F621F731F841F48F4879583
:100F100077956795B795F7959E3F08F0B0CF939575
:100F2000880F08F09927EE0F9795879508950E94EE
:100F3000AB070C9493080E948C0858F00E94850817
:100F400040F029F45F3F29F00C947C0851110C9477
:100F5000C7080C9482080E94A40868F39923B1F38F
:100F6000552391F3951B550BBB27AA2762177307CF
:100F7000840738F09F5F5F4F220F331F441FAA1F63
:100F8000A9F335D00E2E3AF0E0E832D0915050401F
:100F9000E695001CCAF72BD0FE2F29D0660F771FCD
:100FA000881FBB1F261737074807AB07B0E809F0B3
:100FB000BB0B802DBF01FF2793585F4F3AF09E3F38
:100FC000510578F00C947C080C94C7085F3FE4F35B
:100FD000983ED4F3869577956795B795F7959F5F7B
:100FE000C9F7880F911D9695879597F90895E1E0C7
:100FF000660F771F881FBB1F621773078407BA0726
:1010000020F0621B730B840BBA0BEE1F88F7E09580
:1010100008950E9410086894B1110C94C7080895AF
:101020000E94AC0888F09F5798F0B92F9927B751C4
:10103000B0F0E1F0660F771F881F991F1AF0BA957C
:10104000C9F714C0B13091F00E94C608B1E008950C
:101050000C94C608672F782F8827B85F39F0B93FFE
:10106000CCF3869577956795B395D9F73EF490952F
:101070008095709561957F4F8F4F9F4F0895E894AD
:1010800009C097FB3EF490958095709561957F4FD0
:101090008F4F9F4F9923A9F0F92F96E9BB2793957E
:1010A000F695879577956795B795F111F8CFFAF48E
:1010B000BB0F11F460FF1BC06F5F7F4F8F4F9F4FBF
:1010C00016C0882311F096E911C0772321F09EE81D
:1010D000872F762F05C0662371F096E8862F70E083
:1010E00060E02AF09A95660F771F881FDAF7880F5D
:1010F0009695879597F9089597F99F6780E870E02E
:1011000060E008959FEF80EC089500240A9416167D
:10111000170618060906089500240A9412161306E5
:10112000140605060895092E0394000C11F4882373
:1011300052F0BB0F40F4BF2B11F460FF04C06F5F8F
:101140007F4F8F4F9F4F089557FD9058440F551F65
:1011500059F05F3F71F04795880F97FB991F61F039
:101160009F3F79F087950895121613061406551FB0
:10117000F2CF4695F1DF08C0161617061806991F1C
:10118000F1CF86957105610508940895E894BB2711
:1011900066277727CB0197F908950E94C90908F4BB
:1011A0008FEF08950E94E5080C9493080E9485082B
:1011B00038F00E948C0820F0952311F00C947C08E4
:1011C0000C94820811240C94C7080E94A40870F3A0
:1011D000959FC1F3950F50E0551F629FF001729FDC
:1011E000BB27F00DB11D639FAA27F00DB11DAA1FEB
:1011F000649F6627B00DA11D661F829F2227B00D38
:10120000A11D621F739FB00DA11D621F839FA00DC2
:10121000611D221F749F3327A00D611D231F849F12
:10122000600D211D822F762F6A2F11249F57504069
:101230009AF0F1F088234AF0EE0FFF1FBB1F661FE4
:10124000771F881F91505040A9F79E3F510580F0AD
:101250000C947C080C94C7085F3FE4F3983ED4F3E9
:10126000869577956795B795F795E7959F5FC1F751
:10127000FE2B880F911D9695879597F90895FA0191
:10128000EE0FFF1F309621053105A1F161157105A3
:1012900061F48038BFE39B0749F168949038810579
:1012A00061F08038BFEF9B0741F099234AF5FF3F7B
:1012B000E1053105210519F1E8940894E795D90174
:1012C000AA2329F4AB2FBE2FF85FD0F310C0FF5F25
:1012D00070F4A695E0F7F73950F019F0FF3A38F4BA
:1012E0009F779F930DD00F9007FC9058089546F07C
:1012F0000C94820860E070E080E89FE308954FE777
:101300009F775F934F933F932F930E945E0A2F9195
:101310003F914F915F910E94D2080C94970929F454
:1013200016F00C947C080C94C6080C9482080E9459
:10133000AC08A8F39638A0F707F80F92E8942BE3CF
:101340003AEA48EB5FE70E94E8080F920F920F928B
:101350004DB75EB70F920E94A60AE4E5F0E00E9446
:10136000ED094F915F91EF91FF91E595EE1FFF1F02
:1013700049F0FE57E0684427EE0F441FFA95E1F765
:101380004195550B0E94200A0F9007FE0C94140AF9
:101390000895990F0008550FAA0BE0E8FEEF161606
:1013A0001706E807F907C0F012161306E407F50759
:1013B00098F0621B730B840B950B39F40A2661F0CD
:1013C000232B242B252B21F408950A2609F4A14070
:1013D000A6958FEF811D811D0895DF93CF931F93F5
:1013E0000F93FF92EF92DF927B018C01689406C00D
:1013F000DA2EEF010E94E508FE01E894A5912591FF
:10140000359145915591A6F3EF010E944207FE01E7
:101410009701A801DA9469F7DF90EF90FF900F91A0
:101420001F91CF91DF9108959B01AC0160E070E0C6
:1014300080E89FE30C9497070C947C080C94DA0ADC
:101440000E94AC08D8F39923C9F3940F511DA3F35C
:101450009150504094F059F0882332F0660F771F76
:10146000881F91505040C1F79E3F51052CF7880FBF
:10147000911D9695879597F908955F3FACF0983E3A
:101480009CF0BB27869577956795B79508F4B16072
:101490009395C1F7BB0F58F711F460FFE8CF6F5F6A
:1014A0007F4F8F4F9F4FE3CF0C94C70816F00C94DB
:1014B000DA0A0C94820868940C947C080E94AC08A8
:1014C000A8F39923C1F3AEF3DF93CF931F930F9348
:1014D000FF92C92FDD2788232AF02197660F771FF7
:1014E000881FDAF720E030E040E85FEB9FE38839BF
:1014F00020F0803E38F021968F770E942B07ECE792
:10150000F0E004C00E942B07E9EAF0E00E94ED0938
:101510008B01BE01EC01FB2E6F5771097595771F8A
:10152000880B990B0E94410828E132E741E35FE311
:101530000E94E508AF2D9801AE01FF900F911F9119
:10154000CF91DF910E9442070C949308FA01DC01CD
:10155000AA0FBB1F9B01AC01BF5728F422273327DA
:101560004427507820C0B75190F4AB2F0024469503
:1015700037952795011CA395D2F3002071F0220F17
:10158000331F441FB395DAF30ED00C942A07613051
:101590007105A0E88A07B94630F49B01AC016627C3
:1015A000772788279078309621F0208331834283F3
:1015B000538308959F3F31F0915020F4879577959C
:1015C0006795B795880F911D9695879597F908951A
:1015D00097FB072E16F4009407D077FD09D00E94E0
:1015E000FC0A07FC05D03EF4909581959F4F089525
:1015F000709561957F4F0895AA1BBB1B51E107C0F1
:10160000AA1FBB1FA617B70710F0A61BB70B881F92
:10161000991F5A95A9F780959095BC01CD01089521
:04162000F894FFCF6C
:101624004175746F205061726B696E6720566568EE
:101634000044697374616E63653A0043686B2041CA
:101644006C636F6C3A00204E4F54204F4B0043683C
:101654006B20446F6F72733A00416C636F686F6CF8
:1016640020436F6E73756D656400446F6F72204F15
:1016740070656E656400202020556E7061726B6920
:101684006E67002A2A2A2A554E5041524B45442A55
:101694002A2A2A0046696E64276720506172205303
:1016A40070616365002044697374616E63652046EC
:1016B4006F756E6400202020205061726B696E6724
:1016C4002E002A2A2A2A2A5061726B65642A2A2A41
:1016D4002A2A004E6F205061726B696E672044693C
:1016E400737400416C636F53656E7320496E697443
:1016F4003A002020494E495449414C495A494E47E1
:0E170400002020202020202020202020000077
:00000001FF
